:100000000C94980C0C94B50C0C94B50C0C94B50C89
:100010000C94B50C0C94B50C0C94B50C0C94B50C5C
:100020000C94B50C0C94B50C0C94CF2F0C94B50C0F
:100030000C94B50C0C94B50C0C94B50C0C94B50C3C
:100040000C94B50C0C94B50C0C94B50C0C94B50C2C
:100050000C94B50C0C94B50C0C94B50C0C94B50C1C
:100060000C94B50C0C94B50C0C94B50C0C94B50C0C
:100070000C94B50C0C94B50C0C94B50C0C94B50CFC
:100080000C94B50C0C94B50C0C94B50C0C94B50CEC
:100090000C94B50C0C94B50C0C94B50C0C94B50CDC
:1000A0000C94B50C0C94B50C0C94B50CCA12E61259
:1000B000E812F512F712FB120613BC30DE30C53120
:1000C000DE30C53123314531C5319731A93105A81D
:1000D0004CCDB2D44EB93836A9020C50B9918688AD
:1000E000083CA6AAAA2ABE000000803F002F2CF0E0
:1000F000F61404DC0B90207FF81AF819F8000000C1
:1001000007000004171709020030707070707070DB
:1001100070706060606060606060400070F0F0E08F
:10012000080A0A0E030DE3C7C7C7C7C3C3C3C3C2C8
:100130000E12240F010201180318031002300630BA
:100140003FFC04600C600C600C4008C0FFF8188095
:10015000118031803180310023000C19320F01FDF4
:100160000600060006001FC03FF0666066006600DD
:10017000660076003E001F8007C007E0067006306C
:1001800006308630C630E660FFC07F80060006007D
:10019000060014143C1601FF1E00C06301804303D7
:1001A00080C18300C18600C18C00C19C0061180021
:1001B0006330003C73C0006C6000C860019830037D
:1001C00098300318300618300E08201C0C601807F1
:1001D0008030000013164215020003C00004E00046
:1001E00008600018600018600018600018C0001D4A
:1001F00080000F00000C00001C3FE03E0E807706E0
:1002000000638600C18600C1C600C0EC00C07C004F
:10021000C03C00601E00302FC01FC380030A0A08C4
:10022000030DE0C0C0C0C0C0C0C0C0C0071E1E0AD1
:1002300002FB020C1818303060606060C0C0C0C0A3
:10024000C0C0C0C0C0C0E0606060703038180C0230
:10025000071E1E0A01FB80603038181C0C0C0C0EA7
:10026000060606060606060606060C0C0C0C1818F2
:10027000303060800C0D1A0E010B0600060086005F
:100280006630F2F01B8006001B8072F0E63006201C
:10029000060006000C0B160D010306000600060002
:1002A00006000600FFF00600060006000600060035
:1002B0000408080702FB70F03030302040C009010C
:1002C000020B0108FF8004040407020070F0F0E054
:1002D0000D1E3C0F01FB001800380030003000708C
:1002E0000060006000E000C001C001800180038068
:1002F00003000700060006000E000C000C001C00A6
:100300001800380030003000700060006000E0002D
:10031000C0000D13260F0100078018C02060603058
:1003200040304038C018C018C018C018C018C018D5
:10033000C018C01060106030302018400F800B13C0
:10034000260F020002001E007E0086000600060046
:10035000060006000600060006000600060006006D
:100360000600060006000F007FE00B13260F0200B8
:100370000F8030C06060606060600060006000C03E
:1003800000C001800300070006000C0018003020A8
:100390007020E020FFE00B13260F02001F00718089
:1003A00060C0E0C000C000C0018003000F0003C0B7
:1003B00000C000E0006000600060006080C0C1809C
:1003C0007F000C13260F0100004001C003C003C0D2
:1003D00006C00CC00CC018C030C030C060C0E0C047
:1003E000FFF000C000C000C000C000C007F00B1349
:1003F000260F02003FE02000200060006000600047
:1004000060007F0061C000C00060006000600060AC
:100410000060004080C0C1803F000C14280F020023
:1004200000C007000E00180030007000600060007F
:10043000CF80F0E0E060C070C030C030C0306030CD
:100440006020206030400F800C13260F0200FFF068
:100450008060806000E000C000C001800180030077
:1004600003000700060006000C000C001C0018002A
:10047000380030000C13260F02001F8030C060606F
:10048000E060E060E060F8C07F801F801FC031E066
:100490006070C070C030C030C020602070401F80CD
:1004A0000C14280F02FF0F8031C020E04060C070A4
:1004B000C030C030C030C030607030B01F3000601D
:1004C0000060006000C0018007001E003000040FC3
:1004D0000F07020070F0F0600000000000000070E4
:1004E000F0F0E00414140702FB70F0F0600000006C
:1004F000000000000070F03030302040C00C0A14C2
:100500000E0104003000F007C03E00F800F0007E4D
:10051000000F8001F000700C060C0E0106FFF000C9
:1005200000000000000000FFF00C0A140E0104603F
:1005300000F8001F0007E000F001F007C03E00F0E7
:1005400000C0000A172E0E02001F00638041C0C0C9
:10055000C0C0C080C000C00180018003000300064D
:10056000000E000C000C000C000C00000000000E3F
:10057000001E001E001C0018194B1A01FB003F80D2
:1005800001C0E00200380C001C18000C103C8E204A
:100590004386608187418183C10183C30183C30195
:1005A00083C30183C30183C30183C30182E18186C5
:1005B00061838470C5C83078F03800001C00040FD7
:1005C000001C03C070007F8013143C130000004027
:1005D0000000E00000E00001E00001F00001B000D8
:1005E000033000033800031800061C00061C000638
:1005F0000C000FFE000C0600080600180700180388
:1006000000100300300380FE0FE00E1428110100DB
:100610003FC0F07030383018301830183018303093
:1006200030E03FE030703038301C300C300C300C93
:10063000300C30183030FFC00E142811010003F8C0
:100640000C1C10083000600060004000C000C000BA
:10065000C000C000C000C000C000600060007000AA
:1006600038041C1807E011143C1301003FE000F0AF
:100670003800300C00300600300300300300300337
:100680008030018030018030018030018030018075
:1006900030018030030030030030030030060030AA
:1006A0000C00303800FFE0000D1428100100FFF0AE
:1006B000301030103010300030003000300030008A
:1006C0003FE0304030003000300030003000300873
:1006D00030083018FFF80C14280F0100FFF030101C
:1006E00030103010300030003000300030003FC09B
:1006F00030803000300030003000300030003000FA
:100700003000FE0012143C13010001FE00060F0031
:10071000080000100000200000600000400000C041
:100720000000C00000C00000C00000C01FC0C00723
:1007300000C00300600300600300300300180300E2
:100740000C030003FC0013143C150100FC07E0300F
:100750000180300180300180300180300180300123
:10076000803001803001803FFF8030018030018087
:1007700030018030018030018030018030018030D4
:100780000180300180FC07E00614140A0200FC30EE
:100790003030303030303030303030303030303059
:1007A00030FC0B19320AFDFB0FE001800180018053
:1007B0000180018001800180018001800180018031
:1007C0000180018001800180018001800180018021
:1007D0000100010003006200FC0011143C13010041
:1007E000FC7F0030180030300030600030E0003115
:1007F000C0003180003300003600003E00003600AB
:100800000037000033800031C00030E0003070005D
:10081000307800303C00301E00FC0F800D14280F93
:100820000100FC00300030003000300030003000AB
:100830003000300030003000300030003000300038
:100840003000300830083018FFF818143C1A010046
:10085000F8003E3C00383C00783E00783600D83640
:1008600000D837009833019833819831831831C309
:100870001831C61830C61830E618306C18307C189D
:10088000303818303818303818FC10FF13143C1565
:100890000100F007E03801803C01803C01803E010E
:1008A0008037018033818033818031C18030E180A5
:1008B000306180307180303980301D80300D803063
:1008C0000F80300780300380300380FC01801114DA
:1008D0003C13010003F0000C1800100C003006005F
:1008E000200300600300400380C00180C00180C07D
:1008F0000180C00180C00180C00180E00100600370
:10090000006002003006003804000C180007E00008
:100910000F14281101003FE0F038301C300E300673
:10092000300630063006300C300C343833E03000FE
:10093000300030003000300030003000FE0013196D
:100940004B1301FB03F0000C1800100C00300600E4
:10095000200300600300400380C00180C00180C00C
:100960000180C00180C00180C00180E001006003FF
:10097000006003003006001804000C180007F000A7
:10098000007000001800000E200007C00001801257
:10099000143C1201003FC000F07000301800300C11
:1009A00000300C00300C00300C00301800307000AB
:1009B0003FE0003FC00031C00030E0003070003048
:1009C0007000303800303C00301C00300F00FC0F4D
:1009D000C00C14280F02000FE030E04040C000C0FF
:1009E00000E000F8007E007F001FC007E001F0007B
:1009F000F00070003000308020C060E0C07F001048
:100A00001428120100FFFF8183818181810180010F
:100A100080018001800180018001800180018001CE
:100A200080018001800180018001800FF013143C5F
:100A3000150100FC07E0300180300180300180307A
:100A40000180300180300180300180300180300130
:100A500080300180300180300180300180300180A1
:100A60003001001803001C06000E0C0003F00014F7
:100A7000143C150000FE03F03800C01800801C0173
:100A8000800C01800E03000E030006030007060021
:100A9000070600030600038C00018C0001CC000156
:100AA000D80000D80000F80000F0000070000060DE
:100AB000001B14501B0000FE040FE0380403001854
:100AC0000E0300180E03001C0F03001C1B02000C79
:100AD0001B06000C1B86000C3186000E3186000EB2
:100AE00031C4000660CC000660CC000760EC000753
:100AF000C06C0003C0780003C07800038038000396
:100B00008038000300300013143C1400007F1FC025
:100B10003C07001C06000E0600070C00071C000323
:100B2000980001F00001F00000E00000F00001F08A
:100B30000001B800031C00070C00060E000C0700A3
:100B40001C03803803C0FF0FE012143C130000F0B8
:100B50001FC03807001C06000C0C000E0C00071804
:100B60000007180003300003B00001E00001E000BE
:100B700000C00000C00000C00000C00000C00000B5
:100B8000C00000C00000C00007F8000E14281101CA
:100B9000007FFC601C40384078007000E000E001FD
:100BA000C003C00380070007000E001E001C0038B1
:100BB0000038047004F00CFFFC071E1E0A02FBFE46
:100BC000C0C0C0C0C0C0C0C0C0C0C0C0C0C0C0C025
:100BD000C0C0C0C0C0C0C0C0C0C0C0C0FE0D1E3CB0
:100BE0000F01FBC000C000600060007000300030EA
:100BF00000180018001C000C000C000E0006000677
:100C0000000300030003800180018000C000C000D9
:100C1000C00060006000700030003000180018074D
:100C20001E1E0A01FBFE0606060606060606060648
:100C30000606060606060606060606060606060654
:100C40000606FE0C0F1E100209020006000F000F20
:100C5000001B001B80118031C031C060C060E060AB
:100C600060C070C03080200D01020F01FDFFF80749
:100C700007070A001060F038180C04020D0F1E0F51
:100C800001000FC030E070606060006000600FE045
:100C90003FE07E60F060E060C060C06041E03E78B0
:100CA0000F18301000003000F0003000300030002D
:100CB000300030003000300030F031F8361C3C0C91
:100CC000380E300630063006300630063004300C60
:100CD00030081C1007E00C0F1E0E010007E0186022
:100CE000202060004000C000C000C000C000C00064
:100CF000C0006000702038701F800F183011010094
:100D000000180078001800180018001800180018C3
:100D1000001807F81838201860184018C018C018B4
:100D2000C018C018C018C0186018703838DE0F1806
:100D30000D0F1E0F010007C018602030601840180A
:100D4000C018FFF0C000C000C000E00060007008E4
:100D500038300FC00B18300A010003E004C018003F
:100D6000100030003000300030003000FF00320052
:100D700030003000300030003000300030003000F3
:100D80003000300030003000FE000F172E1001F848
:100D9000078618FC20606030603060306030706022
:100DA00038401F80080010003C003FE00FF83FFC77
:100DB000707CE00CC00CC008601070201FC01018C0
:100DC000301201001000F000300030003000300020
:100DD00030003000300030703188360C380C380C60
:100DE000300C300C300C300C300C300C300C300C23
:100DF000300CFC3F061515090100307070600000D2
:100E000030F0303030303030303030303030FC097D
:100E10001D3A08FCF80180038003800300000000F5
:100E20000001800780018001800180018001800134
:100E300080018001800180018001800180018001AA
:100E400080018001800100030002007C00F8000F97
:100E500018301001001000F0003000300030003079
:100E60000030003000300030FC307030E031803332
:100E70000036003E0036003700338031C030E030AD
:100E8000703078FC3E06181809010010F030303040
:100E90003030303030303030303030303030303052
:100EA0003030FC180F2D1A0100F0F07833198C3413
:100EB0001A0C381C0C381C0C30180C30180C30185C
:100EC0000C30180C30180C30180C30180C30180C72
:100ED00030180CFC7E3F100F1E1201007070B1889C
:100EE000360C380C380C300C300C300C300C300C0C
:100EF000300C300C300C300CFC3F0E0F1E1001007B
:100F000007C0187020386018401CC00CC00CC00C02
:100F1000C00CC00CE0086018701038200FC00F170C
:100F20002E1101F870F0B318341C380C300E300656
:100F300030063006300630063004300C30083C10E5
:100F400037E030003000300030003000300030003A
:100F5000FE000E172E1001F8079018702030603038
:100F60004030C030C030C030C030C030C0306030E1
:100F7000607030B01F300030003000300030003082
:100F80000030003001FC0B0F1E0D010031E0F3E0DA
:100F9000344038403800300030003000300030003D
:100FA0003000300030003000FE00090F1E0C02003F
:100FB0003F004300C100C000E000F8007E003F0099
:100FC0000F800380018081808100C300FC000A142F
:100FD000280B010010003000300030003000FFC04E
:100FE0003100300030003000300030003000300080
:100FF000300030003000300030801F400F0F1E11D5
:1010000001003018F07830183018301830183018C7
:1010100030183018301830183018303818DE0F18E3
:101020000F0F1E100000FC3E380C380818181C1852
:101030000C100C300E30062007600740034003C040
:1010400001800100160F2D170000FC107C301818CD
:10105000383810183830183C301C6C300C6E200CAE
:101060004E600CC6600EC7400683400783C00783EE
:10107000C0030180020100100F1E100000FE3F3C63
:101080001C1C100E30066007C003C001C003C00660
:10109000E00C700C381818381CFC3F10172E10FF8D
:1010A000F87E1F1C061C040C0C0E0C0E08061807FC
:1010B000180310033003B001A001E001E000C000FC
:1010C000C000800180018003007E007C00F8000CDD
:1010D0000F1E0E01007FF0406040E001C001800360
:1010E00080070006000E001C001C003810701070F5
:1010F00030FFF0081E1E0B02FB03060C0818181820
:10110000181C0C0C0C0C1830F81C0C0C0C0C1C18BB
:10111000181818180C06030220200703FAC0C0C0D4
:10112000C0C0C0C0C0C0C0C0C0C0C0C0C0C0C0C0BF
:10113000C0C0C0C0C0C0C0C0C0C0C0C0C0081E1EAB
:101140000B01FBC0603018181818183830303030D8
:10115000381F0C183030303038181818181030601C
:10116000C00E060C1001071C083E0C7F8847F08358
:10117000F080E0FF001918F7FA0A021E04B1207F80
:10118000FC0EFC0DFC000000040000020C0C05012C
:101190000040C04040404040404000404005050500
:1011A000070107D8D858484807090908010114243D
:1011B0007E2848FC505090070C0C0800FF10385453
:1011C0005070381E1292D478100A0A140C01006074
:1011D00080910092009600A4006980124032402263
:1011E0004041800A0C180B01001C0024002400243C
:1011F00000280033C0510099008D008600870079D7
:10120000C0020505040107C0C0404040031010059E
:1012100001FD2040408080808080808080808040F0
:1012200040200310100501FD804040202020202098
:10123000202020202040408006070708010620A823
:10124000EC30FCA420060606070102202020FC202A
:10125000200204040401FDC0404080040101060195
:1012600004F001020204020080800810100800FD52
:1012700003020604040C080810103020206040C04F
:10128000060A0A08010038488484848484844870EB
:10129000050A0A08020020E020202020202020F853
:1012A000050A0A08020038C888081020204088F87B
:1012B000060A0A08010070888810300804048C7837
:1012C000060A0A080100081828284888FC08083C73
:1012D000060A0A0801007C4040788C0404048478E3
:1012E000060A0A08010018204080F88484844838DF
:1012F000060A0A080100FC84080808101020204093
:10130000060A0A08010078C4C4C838CC84848478EA
:10131000060A0A08010038C88484847C0408106026
:101320000108080402008080000000008080020B99
:101330000B0401FD40400000000000C0404080065A
:1013400005050701020C7080700C060303070103FA
:10135000FC00FC060505070102C0380C7080060C75
:101360000C070100384484040408102020202020A9
:101370000C0E1C0E01FD0F801040602047908890DD
:10138000909090909090909089A04EC060003060B6
:101390000F800A0A140A000004000C001400120056
:1013A00012001E00210021004180E3C0070A0A0943
:1013B0000100F84444447C46424242FC070A0A09C0
:1013C00001003E42808080808080423C080A0A0AF8
:1013D0000100FC4641414141414242FC070A0A08E2
:1013E0000100FC4440407C40404042FE070A0A089D
:1013F0000100FE4440407840404040E0090A140AA1
:1014000001001E0063008000800080008780810052
:10141000810061003E00090A140B0100E3804100D5
:10142000410041007F004100410041004100E38054
:10143000030A0A050100E04040404040404040E0CF
:10144000060D0D05FEFD3C080808080808080808F8
:101450000810E0090A140A0100E70044004800509F
:10146000006000500058004C004600E380070A0A64
:10147000080100E04040404040404042FE0C0A1459
:101480000E0100C070606060E070E0516059204A59
:10149000204E204420E4F0090A140B0100C38061AF
:1014A000006100510049004D00450043004300E148
:1014B00000080A0A0A01003C42818181818182423E
:1014C0003C070A0A090100FC464242467840404077
:1014D000E00A0C180A01FE3C0042008100810081F4
:1014E0000081008100820042003C00068003C009A8
:1014F0000A140A0100FC0046004200420044007841
:10150000004C0044004600E380060A0A0801007807
:101510008C80C07008048484F8090A14090000FF54
:1015200080888008000800080008000800080008FB
:10153000001C00090A140B0100E380410041004136
:1015400000410041004100410022003C000B0A1410
:101550000B0000F1E0208020803100110019000A0A
:10156000000A000E0004000E0A140E0000F11C63B5
:101570000823102390249034901450186018601899
:10158000200A0A140A0000F3C0210033001A000CDC
:10159000000C00120031002180F3C0090A140A0176
:1015A00000C3806100320016001C0008000800081B
:1015B0000008001C00080A0A0900007F42460408CF
:1015C00018102161FF0410100501FDF0808080805B
:1015D00080808080808080808080F00810100800EB
:1015E000FDC04040202030101008080C0404060202
:1015F000030410100500FDF0101010101010101052
:10160000101010101010F0070808080105103038ED
:1016100048484C84860601010801FEFC04030305CA
:101620000009C060300708080801001C64041C643D
:10163000848C76080D0D09000040C04040404E7378
:1016400041414141423C0608080701003C48808076
:101650008080C478080D0D09010006020202023ED6
:101660004282828282463B06080808010038448490
:10167000FC80804478060D0D0501001C2840404088
:10168000F0404040404040F0080C0C0800FC3F4651
:101690008282C438603CC381C27C080D0D09010000
:1016A00040C04040404E526242424242E7030B0B70
:1016B00005010040C00040C04040404040E0050FF0
:1016C0000F04FEFC08180008180808080808080895
:1016D0000810E0080D0D09010040C04040404E4890
:1016E000506050484CE7030D0D05010040C04040DC
:1016F0004040404040404040E00B08100C0100DDFD
:10170000C0664044404440444044404440EEE00809
:1017100008080901004ED26242424242E707080827
:101720000901003844828282824438070C0C090186
:10173000FC5CE6424242424478404040E0080C0CE7
:101740000901FC3E4282828282463A020202070678
:101750000808070100DC684040404040E0050808F8
:1017600007010070888060188888F0050A0A060161
:10177000004040F8404040404040780908100900CF
:1017800000C3004100410041004100410043003DD1
:1017900080080808080000E3622224341418080CAA
:1017A00008100C0000E270662026202740294039EE
:1017B0004018801080080808090000F72234181C1F
:1017C0002442E7080C0C0800FCE7622224341418B9
:1017D000080810A0C0060808080100FC8810302086
:1017E00040C4FC0410100601FD3040404060202041
:1017F00040E0202060404040200111110402FD80A3
:1018000080808080808080808080808080808080D8
:101810000510100500FD4020202020202038302019
:101820002020202020C008020208000439CEFF003A
:1018300000250028002B002E003100000024002786
:10184000002A002D003000FFE0FFD1AFFF32FFD0B3
:10185000FFFEFFE0FFD1AEFFD0FFFEFFE0FFD110A3
:1018600002FFFEFFD0FFE0FFC1FFD1AED580A83F51
:10187000D300408D142002A1C8DA1281CFD9F1DB48
:10188000402EA4A6AFFFD0FFFE2C034C005500460F
:101890000041002000470065006E0065007200698D
:1018A0000063002000480049004400200044006517
:1018B000006D006F00000018034400650061006EB9
:1018C000002000430061006D0065007200610000AF
:1018D000000403090409022900010100C0320904BF
:1018E0000000020300000009211101000122200074
:1018F000070581030800050705020308000512011A
:10190000100100000008EB034F200100010200015C
:101910000600FF0901A1010902150025FF750895C0
:101920003C81020903150025FF750895409102C00E
:1019300011241FBECFEFDAE0DEBFCDBF11E0A0E083
:10194000B1E0E6E4FBE602C005900D92A235B107D6
:10195000D9F712E0A2E5B1E001C01D92A23AB107A9
:10196000E1F70E94962C0C94A1350C940000089588
:10197000DC011696ED91FC91179715968C919F01BD
:10198000280F311DC9011192E817F907E1F70895F1
:10199000FC0191E08381861708F490E031E046175E
:1019A00008F030E0832F892B21E05281451708F49D
:1019B00020E02823832F8923822B0895DC01FB015B
:1019C000108212968C911297818315968C9115979F
:1019D0008150828313968C9183830895FB0141810A
:1019E0002381213029F0233031F468EF640F04C0E3
:1019F000642F485F01C0642FCBCFFC01CB01BA013B
:101A000026813781458138C0DB011496ED91FC9128
:101A1000159720E030E061E00994DB011496ED9128
:101A2000FC91159720E030E063E00994DB01149607
:101A3000ED91FC91159720E030E040E064E00994DE
:101A4000DB011496ED91FC91159720E030E041E028
:101A500064E00994DB011496ED91FC91159720E068
:101A600030E062E00994DB011496ED91FC9115974A
:101A700020E030E065E00994DB011496ED91FC91E3
:101A8000159766E00994CF92DF92EF92FF920F9341
:101A90001F93CF93DF938C017B016A0180E0F601F5
:101AA000C491811109C0CF3FB1F14C2FB701C801DA
:101AB000DADF811129C034C0CF3F11F44FEFF6CFE8
:101AC000CE3F81F1C03F00F5C03E30F04C2F4F704B
:101AD000B701C801BFDF18C0C03D30F04C2F4F70B8
:101AE000B701C8019ADF10C0C03C80F0B701C8013F
:101AF0009DDFC295C07FCE5FD0E0CE011DD0B70183
:101B0000C8019EDFCE0118D080E006C0C7FDFCCF23
:101B10008C2F90E0F8CF81E0FFEFCF1ADF0ABFCF24
:101B200080E001C081E0DF91CF911F910F91FF9084
:101B3000EF90DF90CF9008952EE93FE0009729F0D5
:101B4000F9013197F1F70197F9CF089584E090E01A
:101B50000197F1F708950F93FC010150040F84A938
:101B600096A9941718F0081728F402C0081750F027
:101B7000041740F42150260F83A995A9961720F445
:101B8000281720F480E007C0281720F481E02617EA
:101B900010F0F8CF81E00F9108951F93CF93DF935A
:101BA000EC011D821C821F821E82198681E08887BB
:101BB00082E28A871F861E86FE01B396CE01C196F9
:101BC0002FEF2193E817F907E1F711E018A3CE01F1
:101BD00076D41F8B188E198E80E48A8F1B8E87EB2C
:101BE0009CE09AAB89ABDF91CF911F910895DB0107
:101BF000ED91FC910994EF92FF921F93CF93DF93A5
:101C000000D0CDB7DEB77C01DC01D196ED91FC911F
:101C1000D29782E069837A83099520E030E04AE038
:101C200069817A81C701E3DF182FD701D196ED9141
:101C3000FC91D29783E00995D701D196ED91FC9163
:101C4000D29780E00995812F0F900F90DF91CF916F
:101C50001F91FF90EF9008950F931F93CF93DF9301
:101C6000EC018B01E9A9FAA982E00995E9A9FAA991
:101C700081E0099520E030E044E1B801CE01B7DF12
:101C80009E012D5C3F4F47E1B801CE01B0DFE9A9CD
:101C9000FAA980E0DF91CF911F910F910994EF9203
:101CA000FF921F93CF93DF93EC017B01E9A9FAA97F
:101CB00082E00995E9A9FAA981E0099520E030E0E0
:101CC00045E1B701CE0193DF182F882339F09E013B
:101CD0002D5C3F4F47E1B701CE0189DFE9A9FAA9A1
:101CE00080E00995812FDF91CF911F91FF90EF90B8
:101CF0000895CF93DF931F92CDB7DEB79E012F5F7C
:101D00003F4F46E474DF89810F90DF91CF910895B2
:101D1000CF93DF931F92CDB7DEB79E012F5F3F4F6A
:101D200047E465DF89810F90DF91CF91089520E02E
:101D300030E048E45CCFCF93DF93EC016A817B8194
:101D4000D8DF88836A817B81CE01E2DF89836A8163
:101D50007B81CE01ECDF8B879E012D5C3F4F6A813A
:101D60007B8147E1CE01DF91CF9141CFCF93DF93CC
:101D7000EC016A817B813FDF882319F0CE01DBDF34
:101D800081E0DF91CF9108958F929F92AF92BF92A1
:101D9000CF92EF920F93CF93DF9300D0CDB7DEB702
:101DA0004C015B012A834983F8DEF401B382A282ED
:101DB000498147A32A8120A705A3E4A2C3A2C401A5
:101DC0000F900F90DF91CF910F91EF90CF90BF9038
:101DD000AF909F908F90CACFFC01628173813CCFFE
:101DE000CF93DF93EC01EE85FF85309709F00995DD
:101DF0006A817B81CE01DF91CF9151CF0F93FC019E
:101E000082819381648F458F278F068F9F01245E87
:101E10003F4F4BE3BC01CF010F91E9CEDC01169699
:101E2000ED91FC91179712968C91481B477081E0B9
:101E300090E0042E01C0880F0A94EAF7E60FF11D26
:101E40003081222311F0832B02C08095832380836D
:101E50000895FB014181DC0112962C9112974217E3
:101E600060F013962C911397241738F06081159623
:101E70002C91621710F42481D1CF0895CF92DF9274
:101E8000FF920F931F93CF93DF936C01EB01FA80C6
:101E90009B81913051F030F0923049F0933051F401
:101EA0001FEF09C010E001E007C011E004C010E01E
:101EB0000FEF02C010E000E0F7FE03C0BE01C60154
:101EC000C8DF9881900F98839981910F9983FF0CB7
:101ED00099F7DF91CF911F910F91FF90DF90CF90F5
:101EE00008950F931F93CF93DF938901FB01C28164
:101EF000D3814233D9F058F44531E1F0473109F14B
:101F0000443141F5CE0134DDCE01F2D223C0463456
:101F1000E1F04734E1F04B33E9F4B901CE015EDD85
:101F20008823C1F0B801CE01A9DF14C0B901CE01E8
:101F300090DF10C0CE01E3D2882369F0CE0118DD16
:101F400009C0B901CE013ADD05C08D8101C089818A
:101F5000F801808381E0DF91CF911F910F91089567
:101F6000CF93DF9300D0CDB7DEB7860F911D860FDC
:101F7000911D42E050E0BC01CE0101960E94643503
:101F800089819A810F900F90DF91CF91089598E009
:101F9000899F600D1124862F0895CF93C82F682F35
:101FA0006695669566958BE398E1DADFFC014081E2
:101FB000C77021E030E001C0220FCA95EAF7242B58
:101FC0002083CF910895CF93DF93C82FD62F682F0A
:101FD0006695669566958FE298E1C2DFFC01C77051
:101FE0008FB7D1110CC0F894908121E030E00C2E15
:101FF00001C0220F0A94EAF72095292309C0F8941A
:10200000908121E030E001C0220FCA95EAF7292B28
:1020100020838FBFDF91CF910895860F911DFC0122
:1020200083A18F3F09F0B9CF0895860F911DFC0160
:1020300083A18F3F11F0642FC6CF0895AF92BF9256
:10204000CF92DF92FF920F931F93CF93DF938C0178
:10205000EB01F42E690180E1481779F1841760F0F3
:10206000EAE04E1334C042E0C801CEDC43E658E15A
:10207000BE01C80108DD2BC0F1E14F1709F185E170
:10208000481325C0AA80BB804BE558E1C801FBDCA2
:10209000F5014481406BBE01C801E5DC41E0BE01B1
:1020A000C801D8DCAE01B801C501A7DC8823E9F07E
:1020B00040E0BE01C801B1DC0AC042E558E102C0FF
:1020C00047E458E1BE01C801DEDC81E00EC09601A4
:1020D0004F2DBE01C801DF91CF911F910F91FF904D
:1020E000DF90CF90BF90AF90FCCEDF91CF911F914A
:1020F0000F91FF90DF90CF90BF90AF900895FC01BB
:10210000E60FF11D849190E0982F88273196E49195
:102110008E0F911D0895FC0184910895FCDF8823A2
:1021200021F0823011F083E0089586E0089580E088
:1021300008950596FC018491089566E0E0CF68E07B
:10214000DECF0A96FC01849108950B96FC018491E0
:1021500008950C96FC01849108950D96FC018491DC
:1021600008950E96FC01849108950F96FC018491C8
:1021700008954096FC0184910895BF92CF92DF921A
:10218000EF92FF920F931F93CF93DF938C01E62E74
:10219000DC011496CD91DC911597CE01BCDFF82EB1
:1021A000F80184819581BADFC82EF1E0FF1203C0E7
:1021B0002FE0B22E02C0BB24BA94D80114968D91A0
:1021C0009C911597BEDFF82EF80184819581BDDFC3
:1021D000D82ED80114968D919C911597B0DFB0E65A
:1021E000BE1538F4009729F0C80FD91F91E6F92ED3
:1021F0000FC0F80184819581A0DFF0E4FE1538F46A
:10220000009729F0C80FD91F81E4F82E01C061960C
:10221000DE1490F4D80150961C92509753961C925D
:10222000539754961C92549751961C9251975296DC
:102230001C9280E090E066C0DF1460F38C2D90E08B
:10224000FE0124912F3F11F4219657C0FE104CC07F
:10225000D80114968D919C9115975DDF9E012F5F9B
:102260003F4FFE01882311F08230E1F48491D801C0
:1022700053968C935397F901249154962C93549729
:10228000FE013396E4915096EC935097FE013496FC
:10229000E4915196EC935197FE013596E491529654
:1022A000EC9320C08491982F9F709250D801529641
:1022B0009C93529782958F7051968C935197F90108
:1022C0002491822F8F7054968C93549722952F705F
:1022D00053962C935397FE013296E491E295EF705A
:1022E0005096EC93CE010EC0FE013296E491EB21A4
:1022F0009C012E0F311DC20FD31FFD1409F48ACF8C
:10230000F3949ECFDF91CF911F910F91FF90EF90AB
:10231000DF90CF90BF9008954F925F926F927F921F
:102320009F92AF92BF92CF92DF92EF92FF920F9364
:102330001F93CF93DF931F92CDB7DEB72C01C62E2C
:10234000942E622F1ADF7C01009709F43AC0F20143
:1023500084819581E3DEB82EF20113890489818995
:10236000C80E8289981AD92CD01A212F4D2D6C2D88
:10237000C201F1DB882311F1EB0CF11C195F1695FA
:1023800016951695612E712CD914C1F03C2D57016C
:102390008A2D8E19811770F4F501049120E04D2DDE
:1023A000632FC20139832ADDFFEFAF1ABF0A3981DB
:1023B000385FEECFE60CF71CD394E6CFF2018089AC
:1023C00001C080E00F90DF91CF911F910F91FF909E
:1023D000EF90DF90CF90BF90AF909F907F906F90E5
:1023E0005F904F900895AF92BF92DF92EF92FF926D
:1023F0000F931F93CF93DF9300D0CDB7DEB77C014F
:10240000D62E042FDC015596ED91FC915697298329
:102410003A830995080F2981A22E3A81B32E10E044
:10242000F50121915F01222339F0402F6D2DC70165
:1024300073DFD80E180FF4CF812F0F900F90DF911C
:10244000CF911F910F91FF90EF90DF90BF90AF90D1
:102450000895CF93DF93EC018C819D81009761F10A
:102460002F89211106C065DE888F8C819D8171DEE8
:102470000DC0213031F479DE888F8C819D8179DE29
:1024800005C06BDE888F8C819D816BDE898F888D86
:10249000992787FD9095298D821B910927FD93959A
:1024A0002A8D203441F0829FC001112426E09695A8
:1024B00087952A95E1F78B8FDF91CF91089527E9D2
:1024C00030E1FC01368B258B0895CF93DF93FC011F
:1024D000248135812617370741F0EC017583648329
:1024E000B8DF87E990E19E8B8D8BDF91CF910895C6
:1024F000FC01128280818150838314820895FC0143
:1025000080819281980F92832181921760F4948147
:102510009F5F94839381890F821710F08FEF820F52
:10252000838381E0089580E008950F931F93CF93F4
:10253000DF938C01D62FC8E04D2F407865E0C801AD
:1025400074DDDD0F41E064E0C8016FDDFFDA40E0DB
:1025500064E0C8016ADDFADAC15071F7DF91CF910A
:102560001F910F910895EF92FF920F931F93CF93B6
:10257000DF931F92CDB7DEB77C018901862F90E0F3
:10258000FC013197E730F10508F04CC0EA5AFF4FE3
:102590000C945E3564E0C70140DD65E0C7013DDDB8
:1025A00061E0C7013ADD62E0C70137DD60E0C701E5
:1025B00034DD40E064E0C70138DD40E065E0C7019C
:1025C00034DD41E062E0C70130DD40E061E004C09D
:1025D000411105C041E062E0C70127DD23C040E0B2
:1025E00064E0C70122DD40E0F6CF60E0F5CF642F64
:1025F000C7019BDF17C04423A9F0F80161918F0147
:10260000C701498392DF49814150F5CF442351F0FE
:10261000F8016491C701498388DF0F5F1F4F49812B
:102620004150F4CF81E00F90DF91CF911F910F9136
:10263000FF90EF9008951F93CF93DF93182FD62F1D
:10264000C42F6AE086EA0E94F831811109C08DE248
:102650000E944C32812F0E944C3284E98093BC004E
:102660006AE086EA0E94F831811109C081E30E9484
:102670004C328D2F0E944C3284E98093BC006AE07A
:1026800086EA0E94F831811109C08CE20E944C3226
:102690008C2F0E944C3284E98093BC00DF91CF9153
:1026A0001F910895CF92DF92FF920F931F93CF93C4
:1026B000DF9300D000D000D0CDB7DEB78C01CE01C3
:1026C00001966C0186E0F60111928A95E9F76AE0BD
:1026D00086EA0E94F83181112CC082E30E944C32BC
:1026E00064E9F62EF092BC006AE087EA0E94F831B5
:1026F00081111FC060E0C6010E945D3260E0CE0122
:1027000002960E945D3260E0CE0103960E945D3227
:1027100060E0CE0104960E945D3260E0CE01059635
:102720000E945D3261E0CE0106960E945D32F09219
:10273000BC008A8190E0982F88272981822BF8019C
:10274000978B868B2C8130E0322F22278B81282B90
:10275000318F208F2E8130E0322F22278D81282B40
:10276000338F228F26960FB6F894DEBF0FBECDBFF3
:10277000DF91CF911F910F91FF90DF90CF9008953F
:102780004F925F926F927F928F929F92AF92BF9281
:10279000CF92DF92EF92FF920F931F93CF93DF932D
:1027A000EC018B0169017A01FB01608D718D882735
:1027B00077FD8095982F0E947B33A70196010E9498
:1027C00068342B013C01F801628D738D882777FDF9
:1027D0008095982F0E947B33A70196010E94683450
:1027E0004B015C01F80166897789882777FD809520
:1027F000982F0E947B33A70196010E94683468835A
:1028000079838A839B834C825D826E827F828886F5
:102810009986AA86BB86CE01DF91CF911F910F9139
:10282000FF90EF90DF90CF90BF90AF909F908F90F0
:102830007F906F905F904F9008951F93CF93DF9399
:10284000C82FD62F142F6AE08CE30E94F831811133
:1028500008C00E944C32812F0E944C3284E9809340
:10286000BC006AE08CE30E94F831811109C081E06C
:102870000E944C328D2F0E944C3284E98093BC0020
:102880006AE08CE30E94F831811109C082E00E9465
:102890004C328C2F0E944C3284E98093BC00DF9133
:1028A000CF911F910895CF92DF92FF920F931F93C4
:1028B000CF93DF9300D000D000D0CDB7DEB78C012E
:1028C000CE0101966C0186E0F60111928A95E9F736
:1028D0006AE08CE30E94F83181112CC083E00E94F1
:1028E0004C3264E9F62EF092BC006AE08DE30E945F
:1028F000F83181111FC060E0C6010E945D3260E0C6
:10290000CE0102960E945D3260E0CE0103960E94E5
:102910005D3260E0CE0104960E945D3260E0CE013F
:1029200005960E945D3261E0CE0106960E945D32FE
:10293000F092BC00898190E0982F88272A81822B11
:10294000F801918B808B2B8130E0322F22278C81F4
:10295000282B358B248B2D8130E0322F22278E813E
:10296000282B338B228B26960FB6F894DEBF0FBE32
:10297000CDBFDF91CF911F910F91FF90DF90CF904E
:1029800008954F925F926F927F928F929F92AF9233
:10299000BF92CF92DF92EF92FF920F931F93CF934C
:1029A000DF93CDB7DEB7C056D1090FB6F894DEBFBE
:1029B0000FBECDBF4C01FB0124813581468157817B
:1029C00080859185A285B38569968CAF9DAFAEAFAA
:1029D000BFAF6997C484D584E684F78444A855A81A
:1029E00066A877A880AD91ADA2ADB3AD6D968CAF62
:1029F0009DAFAEAFBFAF6D9784AD95ADA6ADB7AD92
:102A0000A1968CAF9DAFAEAFBFAFA19780899189E2
:102A1000A289B3898DA39EA3AFA3B8A78489958902
:102A2000A689B78989A79AA7ABA7BCA7808D918DE6
:102A3000A28DB38D8DA79EA7AFA7B8AB848D958DC2
:102A4000A68DB78D89AB9AABABABBCAB80A191A186
:102A5000A2A1B3A18DAB9EABAFABB8AF84A195A142
:102A6000A6A1B7A189AF9AAFABAFBCAF80A591A526
:102A7000A2A5B3A521968CAF9DAFAEAFBFAF2197F6
:102A800084A595A5A6A5B7A525968CAF9DAFAEAF9D
:102A9000BFAF259780A991A9A2A9B3A929968CAF08
:102AA0009DAFAEAFBFAF2997D4016D917D918D9150
:102AB0009C910E947932F4016083718382839383B5
:102AC00069962CAD3DAD4EAD5FAD69976481758162
:102AD000868197810E947932D40114966D937D93FB
:102AE0008D939C931797A701960118966D917D91F0
:102AF0008D919C911B970E947932262F462F572F3C
:102B0000BC01F4014087518762877387A080B18040
:102B1000C280D380E480F5800681178131854285AB
:102B20005385BE016B5D7F4FCE01875B9F4F6FD694
:102B30008CE0FE01E75BFF4FD40101900D928A9576
:102B4000E1F7A3019201D4016D917D918D919C914A
:102B50000E946834F40160837183828393836D964D
:102B60002CAD3DAD4EAD5FAD6D97648175818681B5
:102B700097810E946834D40114966D937D938D9350
:102B80009C931797A1962CAD3DAD4EAD5FADA1972F
:102B900018966D917D918D919C911B970E94683440
:102BA000F4016087718782879387BE016B5D7F4FD9
:102BB000CE01019626D7D401AC901196BC90119706
:102BC0001296CC9012971396DC9013971496EC9073
:102BD00014971596FC90159716960C9116971796C4
:102BE0001C91179718962C91189719963C91199744
:102BF0001A964C911A971B965C91BE016F5F7F4F9E
:102C0000CE01875B9F4F03D68CE0FE01E75BFF4F51
:102C1000D40101900D928A95E1F7C05ADF4F0FB6AB
:102C2000F894DEBF0FBECDBFDF91CF911F910F9102
:102C3000FF90EF90DF90CF90BF90AF909F908F90DC
:102C40007F906F905F904F900895CF93DF93C82F40
:102C5000D62F6AE082ED0E94F831811109C080E22E
:102C60000E944C328D2F0E944C3284E98093BC002C
:102C70006AE082ED0E94F831811109C084E20E946D
:102C80004C328C2F0E944C3284E98093BC00DF913F
:102C9000CF910895CF92DF92FF920F931F93CF931E
:102CA000DF9300D000D000D0CDB7DEB78C01CE01CD
:102CB00001966C0186E0F60111928A95E9F76AE0C7
:102CC00082ED0E94F83181112CC088EA0E944C32BA
:102CD00064E9F62EF092BC006AE083ED0E94F831C0
:102CE00081111FC060E0C6010E945D3260E0CE012C
:102CF00002960E945D3260E0CE0103960E945D3232
:102D000060E0CE0104960E945D3260E0CE0105963F
:102D10000E945D3261E0CE0106960E945D32F09223
:102D2000BC008A8190E0982F88272981822BF801A6
:102D3000958F848F2C8130E0322F22278B81282B96
:102D4000378F268F2E8130E0322F22278D81282B3E
:102D500031A320A326960FB6F894DEBF0FBECDBFD9
:102D6000DF91CF911F910F91FF90DF90CF90089549
:102D70008F929F92AF92BF92CF92DF92EF92FF928B
:102D80000F931F93CF93DF93EC018B01FB01668DB3
:102D9000778D882777FD8095982F0E947B3328EACE
:102DA00036E44FE353E40E94793229E23CE54FE0F8
:102DB0005CE30E94683425E33AEF4EE85CE30E944E
:102DC00068344B015C01F80160A171A1882777FD8F
:102DD0008095982F0E947B332AE63CEB40EE51E42D
:102DE0000E947A3229E23CE54FE05CE30E946834BD
:102DF00025E33AEF4EE85CE30E9468346B017C0106
:102E0000F801648D758D882777FD8095982F0E9435
:102E10007B3328E539EF45E053E40E94793229E21B
:102E20003CE54FE05CE30E94683425E33AEF4EE86E
:102E30005CE30E946834688379838A839B838C82F5
:102E40009D82AE82BF82C886D986EA86FB86CE0185
:102E5000DF91CF911F910F91FF90EF90DF90CF9076
:102E6000BF90AF909F908F900895AF92BF92CF92F6
:102E7000DF92EF92FF920F931F93CF93DF93CDB723
:102E8000DEB7C054D1090FB6F894DEBF0FBECDBF78
:102E90007C018B0180E090E0A0E8BFE3F701808334
:102EA0009183A283B38384839583A683B78380872A
:102EB0009187A287B38784879587A687B7878BE793
:102EC00090E0918B808B8CE790E0938B828B8DE7E9
:102ED00090E0958B848B8FED90E0978B868B80EEC6
:102EE00090E0918F808F81EE90E0938F828F83E4CA
:102EF00091E0958F848F84E491E0978F868F85E4AD
:102F000091E091A380A380E090E0A3EAB3E482A3E0
:102F100093A3A4A3B5A386E083AF80E090E00E94D2
:102F200075350E944D33D62E70E080E090E00E940F
:102F30007933F70166A377A380A791A7F7E0DF12A3
:102F40001BC0CE0101966C01E12CF12C5C01C70184
:102F50000E946D35F60181936F01FFEFEF1AFF0AB2
:102F600080E4E816F10499F780E4F501D8010190B6
:102F70000D928A95E1F781C080E090E0A0E5B1E490
:102F8000F80180839183A283B38380E090E0ACE179
:102F9000B2EC84839583A683B78380E090E0A0E2BF
:102FA000B2EC80879187A287B38780E090E0A8EE9B
:102FB000B1E484879587A687B78787EE91E7A4E079
:102FC000BFE3808B918BA28BB38B83EC9EE0A3E25B
:102FD000BEEB848B958BA68BB78B8BEF9FE3A7E51E
:102FE000BFE3808F918FA28FB38F8DED94E9A6E51B
:102FF000BFEB848F958FA68FB78F8CED94E6A4EDF1
:10300000BDE380A391A3A2A3B3A387EC9FE0A9E0B3
:10301000BFE384A395A3A6A3B7A38BE098E9A0E39D
:10302000BEE380A791A7A2A7B3A78EEC95E5ABE777
:10303000BFE384A795A7A6A7B7A78CEA97E7A3EA5B
:10304000BDE380AB91ABA2ABB3AB8DEA96EAABE547
:10305000BFE384AB95ABA6ABB7AB8EE79CE8A1E929
:10306000BFE380AF91AFA2AFB3AF84E195E0A6E834
:10307000BFE384AF95AFA6AFB7AFC05CDF4F0FB66D
:10308000F894DEBF0FBECDBFDF91CF911F910F919E
:10309000FF90EF90DF90CF90BF90AF900895CF92C8
:1030A000EF920F93CF93DF931F92CDB7DEB765E01A
:1030B00081E00E94C70FE82E62E081E00E94C70F06
:1030C000282F61E081E029830E94C70F482FC12C7F
:1030D0000FEF298160E071E082ED91E00E94C40E63
:1030E0000F90DF91CF910F91EF90CF90089582EDE7
:1030F00091E00E94EC0E82ED91E00E94F00E882398
:1031000069F06CEE70E082ED91E0DFD92EE031E005
:103110004DE26AE082ED91E066D9EDCF08950F931C
:103120001F93CF93DF93EC018B0182ED91E00E941E
:10313000EC0E82ED91E00E94F00E882391F064E79E
:1031400071E182ED91E0C1D99E0144E162E082ED3E
:1031500091E049D998014DE262E082ED91E043D9D6
:10316000E8CFDF91CF911F910F9108954F925F9219
:103170006F927F928F929F92AF92BF92CF92DF9287
:10318000EF92FF920F931F93CF93DF93CDB7DEB7EC
:103190002C970FB6F894DEBF0FBECDBFE982FA823E
:1031A0000B831C832D833E834F83588769877A87DF
:1031B0008B879C8769817A818B819C818D809E80A1
:1031C000AF80B884C984DA84EB84FC849B01AC01B1
:1031D0000E9468342B013C01A5019401C501B40192
:1031E0000E9468349B01AC01C301B2010E947A3293
:1031F0004B015C01A7019601C701B6010E9468342A
:103200009B01AC01C501B4010E947A322C960FB625
:10321000F894DEBF0FBECDBFDF91CF911F910F910C
:10322000FF90EF90DF90CF90BF90AF909F908F90E6
:103230007F906F905F904F900C94D5344F925F9237
:103240006F927F92AF92BF92CF92DF92EF92FF92F6
:103250000F931F93CF93DF93CDB7DEB72C970FB6A5
:10326000F894DEBF0FBECDBF5C01C982DA82EB826B
:10327000FC820D831E832F83388749875A876B878B
:103280007C8729A13AA14BA15CA16D817E818F81B0
:1032900098850E947A322B013C012DA13EA14FA1BD
:1032A00058A569857A858B859C850E947A326B0149
:1032B0007C012D8D3E8D4F8D58A169817A818B8146
:1032C0009C810E947A32F5016083718382839383AB
:1032D0004482558266827782C086D186E286F386F2
:1032E000C5012C960FB6F894DEBF0FBECDBFDF919F
:1032F000CF911F910F91FF90EF90DF90CF90BF90F3
:10330000AF907F906F905F904F900895CF92DF9233
:10331000EF92FF920F931F93CF93DF93EC01E8801E
:10332000F9800A811B812C813D814E815F816885F6
:1033300079858A859B851ADF6B017C0120E030E06E
:10334000A9010E94DE32882321F1A701960168813C
:1033500079818A819B810E94E532688379838A839F
:103360009B83A70196016C817D818E819F810E9444
:10337000E5326C837D838E839F83A70196016885E8
:1033800079858A859B850E94E532688779878A8757
:103390009B87DF91CF911F910F91FF90EF90DF906E
:1033A000CF900895CF92DF92EF92FF920F931F93E9
:1033B000CF93DF93CDB7DEB72C970FB6F894DEBF6F
:1033C0000FBECDBFC982DA82EB82FC820D831E83E1
:1033D0002F83388749875A876B877C870D811E81A9
:1033E0002F813885305849855A856B857C85705882
:1033F000C980DA80EB80FC80F7FAF094F7F8F0945B
:10340000FC01C082D182E282F38204831583268389
:10341000378340875187628773872C960FB6F8945D
:10342000DEBF0FBECDBFDF91CF911F910F91FF90F7
:10343000EF90DF90CF9008952F923F924F925F923E
:103440006F927F928F929F92AF92BF92CF92DF92B4
:10345000EF92FF920F931F93CF93DF93CDB7DEB719
:103460002C970FB6F894DEBF0FBECDBF3C01C982CA
:10347000DA82EB82FC820D831E832F833887498793
:103480005A876B877C872D813E814F815885C50186
:10349000B4010E9468341B012C0129853A854B85B3
:1034A0005C85C501B4010E9468346B017C01A501F3
:1034B000940169817A818B819C810E946834F30137
:1034C000608371838283938324823582468257820C
:1034D000C086D186E286F386C3012C960FB6F89497
:1034E000DEBF0FBECDBFDF91CF911F910F91FF9037
:1034F000EF90DF90CF90BF90AF909F908F907F9094
:103500006F905F904F903F902F9008952F923F9231
:103510004F925F926F927F928F929F92AF92BF92E3
:10352000CF92DF92EF92FF920F931F93CF93DF938F
:10353000CDB7DEB76C970FB6F894DEBF0FBECDBF28
:103540001C01C982DA82EB82FC820D831E832F83E9
:10355000388749875A876B877C8789819A81AB81B5
:10356000BC818D8B9E8BAF8BB88F4D805E806F80C2
:10357000788489849A84AB84BC8489A99AA9ABA9EC
:10358000BCA9898B9A8BAB8BBC8B8DA99EA9AFA94B
:10359000B8AD8D879E87AF87B88BC9ACDAACEBAC82
:1035A000FCACA7019601C301B2010E946834698F87
:1035B0007A8F8B8F9C8F2D853E854F855889C501CD
:1035C000B4010E9468349B01AC01698D7A8D8B8DAA
:1035D0009C8D0E947932D1016D937D938D939C9344
:1035E000139729893A894B895C89C501B4010E94E6
:1035F00068344B015C01A70196016D897E898F8932
:10360000988D0E9468349B01AC01C501B4010E94F1
:103610007932F10164837583868397832D853E8596
:103620004F8558896D897E898F89988D0E9468346D
:103630006B017C0129893A894B895C89C301B201FC
:103640000E9468349B01AC01C701B6010E94793227
:10365000D10118966D937D938D939C931B97C10117
:103660006C960FB6F894DEBF0FBECDBFDF91CF9141
:103670001F910F91FF90EF90DF90CF90BF90AF9090
:103680009F908F907F906F905F904F903F902F9082
:1036900008958F929F92AF92BF92CF92DF92EF9256
:1036A000FF920F931F93FB01423089F04330E1F00A
:1036B000413031F580809180A280B380C480D58074
:1036C000E680F780008511852285338519C08484C2
:1036D0009584A684B784C088D188E288F388048959
:1036E0001589268937890CC0808C918CA28CB38C6B
:1036F000C48CD58CE68CF78C00A111A122A133A13A
:10370000FC0180829182A282B382C482D582E68249
:10371000F78200871187228733871F910F91FF90CF
:10372000EF90DF90CF90BF90AF909F908F900895D3
:10373000AF92CF92DF92EF92FF920F931F93CF93AE
:10374000DF93CDB7DEB72C970FB6F894DEBF0FBE70
:10375000CDBFFC01C982DA82EB82FC820D831E831D
:103760002F83388749875A876B877C8709811A811D
:103770002B813C814D815E816F81788589859A8519
:10378000AB85BC856894FF24F1F8AF14B9F00F2E17
:10379000F3E0FF2EF02DAF14F1F0FF24F394AF10FF
:1037A00026C0008311832283338344835583668339
:1037B000778380879187A287B38719C0048715878D
:1037C00026873787408B518B628B738B848B958BCD
:1037D000A68BB78B0CC0008F118F228F338F448F35
:1037E000558F668F778F80A391A3A2A3B3A32C9646
:1037F0000FB6F894DEBF0FBECDBFDF91CF911F9102
:103800000F91FF90EF90DF90CF90AF9008952F929F
:103810003F924F925F926F927F928F929F92AF9260
:10382000BF92CF92DF92EF92FF920F931F93CF93AD
:10383000DF93CDB7DEB766970FB6F894DEBF0FBE45
:10384000CDBF9E878D871B01A982BA82CB82DC8285
:10385000ED82FE820F83188729873A874B875C8722
:1038600089809A80AB80BC80CD80DE80EF80F88438
:1038700089859A85AB85BC858F87988BA98BBA8BF8
:10388000DB011C962D913D914D915C911F97C501D7
:10389000B4010E9468342B013C01F1012089318977
:1038A00042895389C701B6010E9468349B01AC016B
:1038B000C301B2010E947A322B013C01D10154961E
:1038C0002D913D914D915C9157976F8578898989AC
:1038D0009A890E9468349B01AC01C301B2010E9425
:1038E0007A326B8B7C8B8D8B9E8BF101208D318D91
:1038F000428D538DC501B4010E9468342B013C01F7
:10390000D1015C962D913D914D915C915F97C701DE
:10391000B6010E9468349B01AC01C301B2010E9450
:103920007A322B013C01F10120A131A142A153A126
:103930006F85788989899A890E9468349B01AC01D6
:10394000C301B2010E947A322B013C01D1012D91B9
:103950003D914D915C91C501B4010E9468344B01C9
:103960005C01F1012481358146815781C701B6018F
:103970000E9468349B01AC01C501B4010E947A32F7
:103980006B017C01D10118962D913D914D915C9177
:103990001B976F85788989899A890E9468349B0171
:1039A000AC01C701B6010E947A32ED85FE856083C5
:1039B0007183828393838B899C89AD89BE8984833B
:1039C0009583A683B7834086518662867386CF012E
:1039D00066960FB6F894DEBF0FBECDBFDF91CF91D4
:1039E0001F910F91FF90EF90DF90CF90BF90AF901D
:1039F0009F908F907F906F905F904F903F902F900F
:103A000008952F923F924F925F926F927F928F9282
:103A10009F92AF92BF92CF92DF92EF92FF920F935D
:103A20001F93CF93DF93CDB7DEB72E970FB6F894E1
:103A3000DEBF0FBECDBF1C01DB011C964D905D901B
:103A40006D907C901F9758968D909D90AD90BC90F6
:103A50005B971496CD90DD90ED90FC901797509663
:103A60000D911D912D913C9153975C964D915D91D7
:103A70006D917C915F9749835A836B837C83189601
:103A80004D915D916D917C911B974D835E836F830A
:103A9000788754964D915D916D917C9157974987A8
:103AA0005A876B877C8790964D915D916D917C9143
:103AB00093978D919D910D90BC91A02DF1018083E4
:103AC0009183A283B3834482558266827782808603
:103AD0009186A286B386C486D586E686F786008B55
:103AE000118B228B338B89819A81AB81BC81848B32
:103AF000958BA68BB78B8D819E81AF81B885808F8A
:103B0000918FA28FB38F89859A85AB85BC85848F71
:103B1000958FA68FB78F40A351A362A373A3C10152
:103B20002E960FB6F894DEBF0FBECDBFDF91CF91BA
:103B30001F910F91FF90EF90DF90CF90BF90AF90CB
:103B40009F908F907F906F905F904F903F902F90BD
:103B500008954F925F926F927F928F929F92AF9251
:103B6000CF92DF92EF92FF920F931F93CF93DF9349
:103B7000CDB7DEB7C458D1090FB6F894DEBF0FBE7B
:103B8000CDBF4C0150930C0240930B022FEF87EAFC
:103B900091E6215080409040E1F700C0000066E1CE
:103BA00071E089E291E0BBDAEFEFF7EA21E6E1505C
:103BB000F0402040E1F700C000006D961CAE1DAE45
:103BC0001EAE1FAE6D97A1961CAE1DAE1EAE1FAEF3
:103BD000A197A5961CAE1DAE1EAE1FAEA59704E61E
:103BE00010E0CF57DF4F188219821A821B82C1580A
:103BF000D040C12CD12C760126013701C4010E948E
:103C00005213C4010E945314F401668977898827EE
:103C100077FD8095982F0E947B339B01AC01CF5795
:103C2000DF4F688179818A819B81C158D0400E9491
:103C30007A32CF57DF4F688379838A839B83C15859
:103C4000D040F401608D718D882777FD8095982F85
:103C50000E947B339B01AC01C701B6010E947A32FE
:103C60006B017C01F401628D738D882777FD80954F
:103C7000982F0E947B339B01AC01C301B2010E94CB
:103C80007A322B013C01F40160897189882777FD24
:103C90008095982F0E947B339B01AC016D966CAD93
:103CA0007DAD8EAD9FAD6D970E947A326D966CAFF3
:103CB0007DAF8EAF9FAF6D97F401628973898827BE
:103CC00077FD8095982F0E947B339B01AC01A196D4
:103CD0006CAD7DAD8EAD9FADA1970E947A32A1965D
:103CE0006CAF7DAF8EAF9FAFA197F40164897589EA
:103CF000882777FD8095982F0E947B339B01AC012C
:103D0000A5966CAD7DAD8EAD9FADA5970E947A3224
:103D1000A5966CAF7DAF8EAF9FAFA59701501109EF
:103D200009F06CCF69E371E082E491E0F8D9FFEF2C
:103D300027EA81E6F15020408040E1F700C0000012
:103D4000D6D920E030E048EC52E46D966CAD7DAD04
:103D50008EAD9FAD6D970E94E5326D966CAF7DAFD5
:103D60008EAF9FAF6D9720E030E048EC52E4A19613
:103D70006CAD7DAD8EAD9FADA1970E94E532A19651
:103D80006CAF7DAF8EAF9FAFA19720E030E048ECE5
:103D900052E4A5966CAD7DAD8EAD9FADA5970E940A
:103DA000E532A5966CAF7DAF8EAF9FAFA5976091C2
:103DB0000B0270910C02CE01875A9F4F0E94C114D2
:103DC00020E030E048EC52E4CF57DF4F6881798142
:103DD0008A819B81C158D0400E94E532162FAB01E9
:103DE000BC01A9964CAF5DAF6EAF7FAFA99720E045
:103DF00030E048EC52E4C701B6010E94E532062FDC
:103E0000AB01BC01AD964CAF5DAF6EAF7FAFAD9770
:103E100020E030E048EC52E4C301B2010E94E532F8
:103E2000462F2B013C01E1964CAE5DAE6EAE7FAEEF
:103E3000E197C12EA796DFACA797A896EFACA897FD
:103E4000A996FFACA997AB961FADAB97AC962FADDB
:103E5000AC97AD963FADAD97AF965FADAF97E0969F
:103E60006FADE097E1967FADE197CE01835B9F4F09
:103E700099DAEDB7FEB73C970FB6F894FEBF0FBEC8
:103E8000EDBFADB7BEB711968CE0FE01E75AFF4F0C
:103E900001900D928A95E1F72E96CFAC2E972F9632
:103EA000DFAC2F976096EFAC60976196FFAC61979F
:103EB00062960FAD629763961FAD639764962FADC0
:103EC000649765963FAD659766964FAD6697679622
:103ED0005FAD679768966FAD689769967FAD699794
:103EE000CE018F5B9F4F12DB8DB79EB70C970FB63D
:103EF000F8949EBF0FBE8DBFADB7BEB711968CE0D4
:103F0000FE01E35BFF4F01900D928A95E1F7229647
:103F1000CFAC22972396DFAC23972496EFAC24975F
:103F20002596FFAC259726960FAD269727961FADB1
:103F3000279728962FAD289729963FAD29972A963F
:103F40004FAD2A972B965FAD2B972C966FAD2C9784
:103F50002D967FAD2D97CE01C596D8DACE01835B25
:103F60009F4FD4D9CE018F5B9F4FD0D9CE01C5963C
:103F7000CDD9AA24A394CDA8DEA8EFA8F8AC09ADAA
:103F80001AAD2BAD3CAD4DAD5EAD6FAD21967FADA5
:103F90002197CE010196CCDB82E0A82E2296CFACF1
:103FA00022972396DFAC23972496EFAC249725968F
:103FB000FFAC259726960FAD269727961FAD27971E
:103FC00028962FAD289729963FAD29972A964FAD71
:103FD0002A972B965FAD2B972C966FAD2C972D962D
:103FE0007FAD2D97CE010196A3DB93E0A92E2E96EF
:103FF000CFAC2E972F96DFAC2F976096EFAC6097E3
:104000006196FFAC619762960FAD629763961FADA4
:10401000639764962FAD649765963FAD65976696F6
:104020004FAD669767965FAD679768966FAD689777
:1040300069967FAD6997CE0101967ADBBE016F5F0D
:104040007F4FCE018F589F4F0E94A52980E1FE012E
:10405000EF58FF4FDE01959601900D928A95E1F79A
:10406000CE01859601D58DA19EA1AFA1B8A5F40181
:1040700080839183A283B38389A59AA5ABA5BCA5B0
:1040800084839583A683B7838DA59EA5AFA5B8A984
:1040900080879187A287B38789A99AA9ABA9BCA970
:1040A00084879587A687B7870FB6F894DEBF0FBEC3
:1040B000CDBFCC57DF4F0FB6F894DEBF0FBECDBFDC
:1040C000DF91CF911F910F91FF90EF90DF90CF90F4
:1040D000AF909F908F907F906F905F904F900895DA
:1040E0004F925F926F927F928F929F92AF92BF9208
:1040F000CF92DF92EF92FF920F931F93CF93DF93B4
:10410000CDB7DEB7C85DD1090FB6F894DEBF0FBEDC
:10411000CDBF2C013B0124E237E94FE75BE3CE0141
:104120008F539F4F0E94C013CF53DF4FE880C15C75
:10413000D040CE53DF4FF880C25CD040CD53DF4F2C
:104140000881C35CD040CC53DF4F1881C45CD040A1
:10415000CB53DF4F2881C55CD040CA53DF4F388135
:10416000C65CD040C953DF4F4881C75CD040C853BC
:10417000DF4F5881C85CD040C753DF4F6881C95CAE
:10418000D040C653DF4F7881CA5CD040C553DF4F63
:104190008881CB5CD040C453DF4F9881CC5CD04049
:1041A0000E94B61820E030E040E85FE30E947932D8
:1041B0009F772AE939E949E15EE30E94DE32181669
:1041C0000CF45FC3F30166897789882777FD8095B2
:1041D000982F0E947B33CB54DF4F688379838A8387
:1041E0009B83C55BD040F301608D718D882777FD7F
:1041F0008095982F0E947B33C754DF4F6883798363
:104200008A839B83C95BD040F301628D738D8827BD
:1042100077FD8095982F0E947B33C354DF4F6883CE
:1042200079838A839B83CD5BD040F3016089718958
:10423000882777FD8095982F0E947B33C755DF4FE5
:10424000688379838A839B83C95AD040F30162894A
:104250007389882777FD8095982F0E947B33C355FB
:10426000DF4F688379838A839B83CD5AD040F301E3
:1042700064897589882777FD8095982F0E947B3304
:10428000CF54DF4F688379838A839B83C15BD0409F
:1042900060910B0270910C02CE0187559F4F0E94D6
:1042A000C114CB54DF4FC880C55BD040CA54DF4F28
:1042B000D880C65BD040C954DF4FE880C75BD04090
:1042C000C854DF4FF880C85BD040C754DF4F088127
:1042D000C95BD040C654DF4F1881CA5BD040C5547B
:1042E000DF4F2881CB5BD040C454DF4F3881CC5B9B
:1042F000D040C354DF4F4881CD5BD040C254DF4F24
:104300005881CE5BD040C154DF4F6881CF5BD04035
:10431000C054DF4F7881C05CD040CE0183569F4FA0
:1043200041D88DB79EB70C970FB6F8949EBF0FBEBD
:104330008DBFADB7BEB711968CE0FE01E755FF4FBC
:1043400001900D928A95E1F7C356DF4FC880CD5991
:10435000D040C256DF4FD880CE59D040C156DF4F33
:10436000E880CF59D040C056DF4FF880C05AD040C7
:10437000CF55DF4F0881C15AD040CE55DF4F18814D
:10438000C25AD040CD55DF4F2881C35AD040CC55BA
:10439000DF4F3881C45AD040CB55DF4F4881C55AD2
:1043A000D040CA55DF4F5881C65AD040C955DF4F5B
:1043B0006881C75AD040C855DF4F7881C85AD0406D
:1043C000CE018F569F4FA2D8EDB7FEB73C970FB6E0
:1043D000F894FEBF0FBEEDBFADB7BEB711968CE02F
:1043E000FE01E356FF4F01900D928A95E1F7CF56FB
:1043F000DF4FC880C159D040CE56DF4FD880C25958
:10440000D040CD56DF4FE880C359D040CC56DF4F67
:10441000F880C459D040CB56DF4F0881C559D040F1
:10442000CA56DF4F1881C659D040C956DF4F288180
:10443000C759D040C856DF4F3881C859D040C756F9
:10444000DF4F4881C959D040C656DF4F5881CA59FD
:10445000D040C556DF4F6881CB59D040C456DF4F9E
:104460007881CC59D040CE018B579F4F4FD8CE0189
:1044700083569F4F0E948619CE018F569F4F0E94F0
:104480008619CE018B579F4F0E948619F3018080B9
:104490009180A280B380C480D580E680F7800085BB
:1044A0001185228533854485558566857785CE01BE
:1044B0000196C6D542E0BE016F5F7F4FCE018F5996
:1044C0009F4FE7D88DB79EB70C970FB6F8949EBF55
:1044D0000FBE8DBFADB7BEB711968CE0FE01EF5990
:1044E000FF4F01900D928A95E1F7CF56DF4FC880BC
:1044F000C159D040CE56DF4FD880C259D040CD569A
:10450000DF4FE880C359D040CC56DF4FF880C45904
:10451000D040CB56DF4F0881C559D040CA56DF4F37
:104520001881C659D040C956DF4F2881C759D0409D
:10453000C856DF4F3881C859D040C756DF4F488131
:10454000C959D040C656DF4F5881CA59D040C556C8
:10455000DF4F6881CB59D040C456DF4F7881CC59AA
:10456000D040CE018B5A9F4F0E94861A0FB6F89406
:10457000DEBF0FBECDBF41E0BE016F5F7F4FCE01FA
:10458000875B9F4F86D88DB79EB70C970FB6F89470
:104590009EBF0FBE8DBFADB7BEB711968CE0FE01BA
:1045A000E75BFF4F01900D928A95E1F7CB57DF4F04
:1045B000C880C558D040CA57DF4FD880C658D040B1
:1045C000C957DF4FE880C758D040C857DF4FF88041
:1045D000C858D040C757DF4F0881C958D040C65788
:1045E000DF4F1881CA58D040C557DF4F2881CB58BC
:1045F000D040C457DF4F3881CC58D040C357DF4F2D
:104600004881CD58D040C257DF4F5881CE58D04056
:10461000C157DF4F6881CF58D040C057DF4F7881F6
:10462000C059D040CE01CD960E94861AEDB7FEB794
:104630003C970FB6F894FEBF0FBEEDBFADB7BEB747
:1046400011968CE0FE01EB5AFF4F01900D928A9576
:10465000E1F7CDACDEACEFAC2196FFAC2197229612
:104660000FAD229723961FAD239724962FAD249745
:1046700025963FAD259726964FAD269727965FAD99
:10468000279728966FAD289729967FAD2997CE0159
:1046900087589F4F0E941E1943E0BE016F5F7F4FF6
:1046A000CE01C1960E94491B8DB79EB70C970FB6DD
:1046B000F8949EBF0FBE8DBFADB7BEB711968CE00C
:1046C000FE01F19601900D928A95E1F7C356DF4FF6
:1046D000C880CD59D040C256DF4FD880CE59D04087
:1046E000C156DF4FE880CF59D040C056DF4FF88029
:1046F000C05AD040CF55DF4F0881C15AD040CE5567
:10470000DF4F1881C25AD040CD55DF4F2881C35AA0
:10471000D040CC55DF4F3881C45AD040CB55DF4F05
:104720004881C55AD040CA55DF4F5881C65AD0403B
:10473000C955DF4F6881C75AD040C855DF4F7881CF
:10474000C85AD040CE0185960E94861A0FB6F894BA
:10475000DEBF0FBECDBF8DB79EB70C970FB6F894D6
:104760009EBF0FBE8DBFADB7BEB711968CE0FE01E8
:10477000B59601900D928A95E1F7EA96CFACEA974B
:10478000EB96DFACEB97EC96EFACEC97ED96FFACCD
:10479000ED97EE960FADEE97EF961FADEF97C158E0
:1047A000DF4F2881CF57D040C058DF4F3881C058E5
:1047B000D040CF57DF4F4881C158D040CE57DF4F50
:1047C0005881C258D040CD57DF4F6881C358D04080
:1047D000CC57DF4F7881C458D040CE0183599F4FCA
:1047E0000E941E198AE9882E89E9982E89E1A82E4F
:1047F0008EE3B82EAE96CFACAE97AF96DFACAF9748
:10480000E096EFACE097E196FFACE197E2960FAD52
:10481000E297E3961FADE397E4962FADE497E59614
:104820003FADE597E6964FADE697E7965FADE79724
:10483000E8966FADE897E9967FADE997CE0183538F
:104840009F4F0E941C1AC353DF4F088119812A8190
:104850003B81CD5CD040CF52DF4F488159816A8186
:104860007B81C15DD040CB52DF4F88819981AA8185
:10487000BB81C55DD0400FB6F894DEBF0FBECDBF83
:1048800007C080E090E0DC01AC01BD018C019D011E
:10489000F20100831183228333834483558366832B
:1048A000778380879187A287B387C201C852DF4F81
:1048B0000FB6F894DEBF0FBECDBFDF91CF911F9131
:1048C0000F91FF90EF90DF90CF90BF90AF909F90AF
:1048D0008F907F906F905F904F9008954F925F926E
:1048E0006F927F928F929F92AF92BF92CF92DF9200
:1048F000EF92FF920F931F93CF93DF93CDB7DEB765
:10490000C454D1090FB6F894DEBF0FBECDBF2C0141
:104910003B01CE014D96E4DBB301CE0141960E94EE
:10492000B8168DB79EB70C970FB6F8949EBF0FBE02
:104930008DBFADB7BEB711968CE0FE017D9601909C
:104940000D928A95E1F7C988DA88EB88FC880D8991
:104950001E892F89388D498D5A8D6B8D7C8DCE01A6
:1049600089960E941E19E9A4FAA40BA51CA52DA5E1
:104970003EA54FA558A969A97AA98BA99CA90E940F
:10498000B618F30122A133A144A155A10E946834B5
:104990004B015C01CE0189960E948619C9A4DAA454
:1049A000EBA4FCA40DA51EA52FA538A949A95AA9B9
:1049B0006BA97CA9CE010196BDD2CE01019654D03F
:1049C0008DB79EB740970FB6F8949EBF0FBE8DBFB0
:1049D000ADB7BEB7119680E1FE01319601900D9200
:1049E0008A95E1F7F30180809180A280B380C48032
:1049F000D580E680F7800085118522853385448542
:104A0000558566857785CE01C59608D180E1FE0182
:104A1000F596D30101900D928A95E1F780E1FE01B0
:104A20003196D20101900D928A95E1F70FB6F89474
:104A3000DEBF0FBECDBFC201CC5BDF4F0FB6F89417
:104A4000DEBF0FBECDBFDF91CF911F910F91FF90C1
:104A5000EF90DF90CF90BF90AF909F908F907F901E
:104A60006F905F904F9008954F925F926F927F92F8
:104A70008F929F92AF92BF92CF92DF92EF92FF926E
:104A80000F931F93CF93DF93CDB7DEB728970FB661
:104A9000F894DEBF0FBECDBF8C01DC014D905D9060
:104AA0006D907C90139714968D909D90AD90BC90D6
:104AB000179718968D919D910D90BC91A02D89838B
:104AC0009A83AB83BC83D8011C968D919D910D90E8
:104AD000BC91A02D8D839E83AF83B887A3019201E3
:104AE000C301B2010E9468346B017C01A5019401ED
:104AF000C501B4010E9468349B01AC01C701B60135
:104B00000E947A326B017C0129813A814B815C8160
:104B1000CA01B9010E9468349B01AC01C701B6010A
:104B20000E947A326B017C012D813E814F81588534
:104B3000CA01B9010E9468349B01AC01C701B601EA
:104B40000E947A326B017C0125EC30E240E85FE3A1
:104B50000E946434181654F027E73EEB4FE75FE3FA
:104B6000C701B6010E94DE3287FF41C0C701B6010E
:104B70000E94D5346B017C0120E030E0A9010E9445
:104B8000DE328823A1F1A7019601C301B2010E9480
:104B9000E532F8016083718382839383A7019601D4
:104BA000C501B4010E94E532D80114966D937D933E
:104BB0008D939C931797A701960169817A818B81C8
:104BC0009C810E94E532F801608771878287938714
:104BD000A70196016D817E818F8198850E94E532C3
:104BE000D8011C966D937D938D939C931F97289667
:104BF0000FB6F894DEBF0FBECDBFDF91CF911F91EE
:104C00000F91FF90EF90DF90CF90BF90AF909F906B
:104C10008F907F906F905F904F9008952F923F926A
:104C20004F925F926F927F928F929F92AF92BF92BC
:104C3000CF92DF92EF92FF920F931F93CF93DF9368
:104C4000CDB7DEB7A8970FB6F894DEBF0FBECDBFC5
:104C50001C0189829A82AB82BC82CD82DE82EF8285
:104C6000F88609871A872B873C874D875E876F8771
:104C7000788BC980DA80EB80FC808D819E81AF814A
:104C8000B88589A39AA3ABA3BCA389859A85AB8574
:104C9000BC858D8F9E8FAF8FB8A38D859E85AF8588
:104CA000B889898F9A8FAB8FBC8F21968CAD9DADC3
:104CB000AEADBFAD21978D8B9E8BAF8BB88F2596F8
:104CC0008CAD9DADAEADBFAD2597898B9A8BAB8B6F
:104CD000BC8B29968CAD9DADAEADBFAD29978DA394
:104CE0009EA3AFA3B8A72D968CAC9DACAEACBFACC9
:104CF0002D972D893E894F89588DC701B6010E9495
:104D000068342B013C0129893A894B895C8969A166
:104D10007AA18BA19CA10E9468349B01AC01C301C4
:104D2000B2010E9479322B013C012DA13EA14FA17D
:104D300058A56D8D7E8D8F8D98A10E9468349B0142
:104D4000AC01C301B2010E9479322B013C01A501E3
:104D50009401698D7A8D8B8D9C8D0E9468349B01A6
:104D6000AC01C301B2010E947932D1016D937D93F0
:104D70008D939C93139729893A894B895C89C70144
:104D8000B6010E9468342B013C012D893E894F8970
:104D9000588D69A17AA18BA19CA10E9468349B01C6
:104DA000AC01C301B2010E947A322B013C01A50182
:104DB00094016D8D7E8D8F8D98A10E9468349B012A
:104DC000AC01C301B2010E947A322B013C012DA13A
:104DD0003EA14FA158A5698D7A8D8B8D9C8D0E9427
:104DE00068349B01AC01C301B2010E947932F10128
:104DF00064837583868397832DA13EA14FA158A517
:104E0000C701B6010E9468342B013C01A501940141
:104E100069A17AA18BA19CA10E9468349B01AC017D
:104E2000C301B2010E9479322B013C012D893E89D8
:104E30004F89588D6D8D7E8D8F8D98A10E9468341D
:104E40009B01AC01C301B2010E947A322B013C01EB
:104E500029893A894B895C89698D7A8D8B8D9C8DE6
:104E60000E9468349B01AC01C301B2010E947A32F6
:104E7000D10118966D937D938D939C931B97A501FB
:104E80009401C701B6010E9468346B017C012DA119
:104E90003EA14FA158A569A17AA18BA19CA10E9416
:104EA00068349B01AC01C701B6010E947A326B01E4
:104EB0007C0129893A894B895C896D8D7E8D8F8D26
:104EC00098A10E9468349B01AC01C701B6010E9401
:104ED00079326B017C012D893E894F89588D698D0E
:104EE0007A8D8B8D9C8D0E9468349B01AC01C7012B
:104EF000B6010E947A32F1016487758786879787A9
:104F0000C101A8960FB6F894DEBF0FBECDBFDF91EA
:104F1000CF911F910F91FF90EF90DF90CF90BF90B6
:104F2000AF909F908F907F906F905F904F903F9049
:104F30002F9008952F923F924F925F926F927F929F
:104F40008F929F92AF92BF92CF92DF92EF92FF9299
:104F50000F931F93CF93DF93CDB7DEB760970FB654
:104F6000F894DEBF0FBECDBF1C01C982DA82EB828E
:104F7000FC820D831E832F83388749875A876B876E
:104F80007C8720E030E040E05FE3C501B4010E948F
:104F900068346B017C010E94E2322B013C01C701A5
:104FA000B6010E94CB346B017C0129813A814B818F
:104FB0005C810E9468344B015C012D813E814F81F0
:104FC0005885C701B6010E9468346D877E878F8738
:104FD000988B29853A854B855C85C701B6010E946F
:104FE0006834F101408251826282738284829582A8
:104FF000A682B7822D853E854F85588920873187C7
:10500000428753876487758786879787C101609633
:105010000FB6F894DEBF0FBECDBFDF91CF911F91C9
:105020000F91FF90EF90DF90CF90BF90AF909F9047
:105030008F907F906F905F904F903F902F9008954A
:105040002F923F924F925F926F927F928F929F9298
:10505000AF92BF92CF92DF92EF92FF920F931F9386
:10506000CF93DF93CDB7DEB7E4970FB6F894DEBFEA
:105070000FBECDBF1C0189829A82AB82BC82CD82D9
:10508000DE82EF82F88609871A872B873C874D8757
:105090005E876F87788B89819A81AB81BC818D8B8C
:1050A0009E8BAF8BB88F4D805E806F8078848984B3
:1050B0009A84AB84BC84CD84DE84EF84F888A50117
:1050C0009401C501B4010E9468349B01AC010E94A7
:1050D0007A326D8F7E8F8F8F98A3A7019601C701BB
:1050E000B6010E9468349B01AC010E947A32698B40
:1050F0007A8B8B8B9C8BA3019201C301B2010E941E
:105100007A3269A37AA38BA39CA3A50194010E9480
:1051100068346DA37EA38FA398A72D893E894F89FC
:10512000588DCA01B9010E947A32698F7A8F8B8FAC
:105130009C8FA70196010E94683469A77AA78BA764
:105140009CA7A5019401698D7A8D8B8D9C8D0E9401
:1051500068346DA77EA78FA798ABA3019201C30106
:10516000B2010E9468349B01AC010E947A329B011B
:10517000AC0160E070E080E89FE30E94793269ABA7
:105180007AAB8BAB9CAB2D8D3E8D4F8D58A160E0E3
:1051900070E080E89FE30E94793229893A894B893F
:1051A0005C890E947932D1016D937D938D939C939C
:1051B000139729A53AA54BA55CA56DA17EA18FA14A
:1051C00098A50E947932F101648375838683978361
:1051D000A701960169A17AA18BA19CA10E946834C4
:1051E0002DA53EA54FA558A90E947A32D101189647
:1051F0006D937D938D939C931B9729A53AA54BA501
:105200005CA56DA17EA18FA198A50E947A32F101C3
:10521000648775878687978729893A894B895C894E
:1052200069A97AA98BA99CA90E947932D1015096CB
:105230006D937D938D939C935397A7019601C50120
:10524000B4010E9468349B01AC010E947A32698BE0
:105250007A8B8B8B9C8BA30192016D897E898F89C0
:10526000988D0E9468349B01AC010E947A329B01A8
:10527000AC0169897A898B899C890E947932F10114
:10528000648B758B868B978BA7019601C301B20146
:105290000E9468349B01AC010E947A322DA53EA584
:1052A0004FA558A90E947932D10158966D937D93EC
:1052B0008D939C935B97A5019401C501B4010E9455
:1052C0007A32A70196010E9468346B017C01A30128
:1052D0009201698D7A8D8B8D9C8D0E9468349B0123
:1052E000AC01C701B6010E947A32F101648F758F5B
:1052F000868F978F2D8D3E8D4F8D58A169A97AA9E4
:105300008BA99CA90E947932D10190966D937D93CF
:105310008D939C939397C101E4960FB6F894DEBFEA
:105320000FBECDBFDF91CF911F910F91FF90EF90F6
:10533000DF90CF90BF90AF909F908F907F906F90B5
:105340005F904F903F902F9008952F923F924F92F1
:105350005F926F927F928F929F92AF92BF92CF9205
:10536000DF92EF92FF920F931F93CF93DF9300D0C2
:1053700000D0CDB7DEB78C011B01FB01808091808E
:10538000A280B380C088D188E288F38840A051A071
:1053900062A073A0A7019601C501B4010E947A32F0
:1053A000A30192010E947A3269837A838B839C8362
:1053B00020E030E0A9010E94643418160CF04EC0C1
:1053C00020E030E040E85FE369817A818B819C8155
:1053D0000E947A320E94D5349B01AC010E947A323D
:1053E00069837A838B839C8320E030E040E85EE32E
:1053F0000E9468342B013C01F101248935894689DA
:105400005789648D758D868D978D0E94793229819B
:105410003A814B815C810E94E5324B015C01F101D4
:10542000208D318D428D538D608571858285938568
:105430000E94793229813A814B815C810E94E53258
:105440006B017C01F101248135814681578164859E
:105450007585868597850E94793265C0A301920182
:10546000C501B4010E94DE3287FF64C0A701960126
:10547000C501B4010E94DE3287FF5CC020E030E04D
:1054800040E85FE3C501B4010E947A32A7019601AA
:105490000E947932A30192010E9479320E94D53490
:1054A0009B01AC010E947A3269837A838B839C834F
:1054B000F1012489358946895789648D758D868DDA
:1054C000978D0E94793229813A814B815C810E94BB
:1054D000E5322B013C0120E030E040E85EE36981E9
:1054E0007A818B819C810E9468344B015C01F101BF
:1054F00024853585468557856481758186819781A8
:10550000F9D729813A814B815C810E94E5326B0198
:105510007C01F101208D318D428D538D6085718527
:1055200082859385E7D729813A814B815C810E94EE
:10553000E532A7C0A3019201C701B6010E94DE3285
:1055400020E030E040E85FE387FF4CC0C701B601D0
:10555000D1D7A5019401CDD7A3019201CAD70E944A
:10556000D5349B01AC01C6D769837A838B839C8336
:10557000F101208D318D428D538D6085718582853D
:105580009385B7D729813A814B815C810E94E532AE
:105590002B013C01F10124853585468557856481C1
:1055A000758186819781A6D729813A814B815C815B
:1055B0000E94E5324B015C0120E030E040E85EE310
:1055C00069817A818B819C810E9468346B017C01A6
:1055D000F101248D358D468D578D648975898689B5
:1055E0009789A0CFC301B20185D7A501940181D7C6
:1055F000A70196017ED70E94D5349B01AC017AD7D2
:1056000069837A838B839C83F10124813581468170
:10561000578164857585868597856BD729813A8101
:105620004B815C81D2D72B013C01F101208D318D62
:10563000428D538D60857185828593855BD72981E5
:105640003A814B815C81C1D74B015C01F101248D12
:10565000358D468D578D64897589868997894AD796
:1056600029813A814B815C81B0D76B017C0120E0BC
:1056700030E040E85EE369817A818B819C810E9401
:105680006834F801408251826282738284829582FA
:10569000A682B782C086D186E286F3866487758744
:1056A00086879787C8010F900F900F900F90DF911A
:1056B000CF911F910F91FF90EF90DF90CF90BF900F
:1056C000AF909F908F907F906F905F904F903F90A2
:1056D0002F90089510BA8E9A8D9A8C9A0895FC0195
:1056E00013AE7E9902C084E083AF7D9903C083AD81
:1056F000816083AF7C9903C083AD826083AF0895DE
:1057000084B7877F84BF88E10FB6F89480936000E8
:10571000109260000FBE90E080E80FB6F89480937E
:105720006100909361000FBEECEBF0E0808184603B
:1057300080831092B9008CE08093B800CBDFE1E861
:10574000F0E0808185608083109285001092840053
:105750000E944F180E9477184EE060E088E00E9497
:105760001B136FEC82E00E94251648E760EA80E098
:105770000E941D14F7C30895089542E061EC81E092
:105780002BD342E060EC82E027C3FC019CE3A5E55B
:10579000B2E001900D929A95E1F740E450E060E0AC
:1057A00070E085E592E00C947A35CF93DF93DC01CD
:1057B000E9E1F2E0C5E5D2E04C815D816E817F8157
:1057C00042A753A764A775A74CAD5DAD6EAD7FAD85
:1057D00046A757A760AB71AB9CE301900D929A95D9
:1057E000E1F7DF91CF910895CF93DF93CDB7DEB787
:1057F000C054D1090FB6F894DEBF0FBECDBF809163
:105800009B02813019F08930C1F02DC080919A023D
:10581000813A49F5CE010196C8DF8091E800877F83
:105820008093E8006CE370E0CE010196D9D18091BD
:10583000E8008B778093E80016C080919A0281324D
:1058400091F48091E800877F8093E80060E470E045
:10585000CE01019624D28091E8008E778093E800F3
:10586000CE01019692DFC05CDF4F0FB6F894DEBF29
:105870000FBECDBFDF91CF910895CF93DF93CDB70A
:10588000DEB7C054D1090FB6F894DEBF0FBECDBF4E
:1058900080919902843081F582E08093E9008091C3
:1058A000E80082FF13C08091E80085FF0AC040E055
:1058B00050E060E470E0CE01019648D1CE0101963F
:1058C00064DF8091E8008B778093E80081E080932B
:1058D000E9008091E80080FF0FC0CE01019665DFEE
:1058E00040E050E06CE370E0CE010196E5D080919D
:1058F000E8008E778093E800C05CDF4F0FB6F89425
:10590000DEBF0FBECDBFDF91CF9108958FB7F89462
:1059100060918400709185008FBF80E090E0E9D6AF
:105920002FE632E143E85DE3D3D7B7C6CF93DF93E9
:10593000CDB7DEB760970FB6F894DEBF0FBECDBF10
:10594000DFDE65E572E089E192E00E94351745E50A
:1059500052E062ED71E089E192E00E94A91D789425
:1059600080910D0290910E02A0910F02B091100251
:105970008093150290931602A0931702B093180219
:10598000C5DF60930D0270930E0280930F02909317
:105990001002009115021091160220911702309109
:1059A0001802061717072807390798F4601B710BB0
:1059B000820B930B9ED620E030E04AE754E405D6F4
:1059C0006093110270931202809313029093140259
:1059D00008C010921102109212021092130210923B
:1059E00014028091110290911202A0911302B091C1
:1059F000140280933B0290933C02A0933D02B0932B
:105A00003E0289E192E00E94521389E192E00E94F5
:105A10004A1689E192E00E94531489E192E05FDE28
:105A200069E172E0CE0101960E946E2426DFC6D4A1
:105A300097CF292F332723303105E1F05CF4213053
:105A4000310599F02230310579F589E290E025EDB4
:105A500038E12EC02132310511F12232310521F514
:105A600080E290E020E139E123C082E190E02EEF76
:105A700038E11EC099278130910541F082309105AF
:105A800041F0892B89F4E1EDF8E105C0E7EBF8E19D
:105A900002C0E9E8F8E1849190E09F0109C089E043
:105AA00090E027EE38E104C080E090E020E030E0B4
:105AB000FA01318320830895CF92DF92EF92FF9213
:105AC0000F931F93CF93DF93EC018B017A01D8D111
:105AD000811133C0E114F10439F0F7018081918123
